:0400000069EF00F0B4
:060008003782B6ED08F09E
:100018003780D8CF13F0E8CF14F0E0CF15F0FACF3F
:1000280016F0FBCF17F0E9CF18F0EACF19F0E1CFBF
:100038001AF0E2CF1BF0D9CF1CF0DACF1DF0F3CFC6
:100048001EF0F4CF1FF0F6CF20F0F7CF21F0F8CF55
:1000580022F0F5CF23F037C024F038C025F039C09E
:1000680026F03AC027F09E9C000E0001A06F010EFA
:100078009F6F27C03AF026C039F025C038F024C059
:1000880037F023C0F5FF22C0F8FF21C0F7FF20C0DA
:10009800F6FF1FC0F4FF1EC0F3FF1DC0DAFF1CC02F
:1000A800D9FF1BC0E2FF1AC0E1FF19C0EAFF18C060
:1000B800E9FF17C0FBFF16C0FAFF15C0E0FF14C028
:0E00C800E8FF13C0D8FF37901000A9EF0AF030
:1008000000542E4C4944413A00542E5245463A0079
:0D081000202044433A00200025002E000067
:10081E00000E946EBD86BD84BD92BD90CA9CCA9AD0
:10082E00CA98CA96CA84CA92CA80C70ECB6ED08E98
:10083E00F28EF28C9268B18EB19AB198B192B1806B
:10084E00F20EB36EFB0EB26EA192A082A282C28095
:10085E00C292C19AC198C186C194C182C1809E9C28
:10086E009D8C9F9CC08EC09AC088C096C084C0923A
:10087E00C0808282000E956E000E966E280E73EC6E
:10088E0009F0010EE7EC0AF00D0E00017B6FFB0E76
:10089E00E82EFED77B2FFCD700D0010EE7EC0AF036
:1008AE000C0EE7EC0AF000019F05A011D8A40CD1A4
:1008BE009EBF06D09E5103E1310E9D5DD8B004D18E
:1008CE00000EA06F000E9F6FC4507C6F7B6BC350E9
:1008DE007B25306E000E7C21316E23EC0BF030C088
:1008EE0060F031C061F032C062F0670E0001636FDC
:1008FE009C0E646F400E656F3BEC08F060C098F084
:10090E0061C099F062C09AF098C060F099C061F031
:10091E009AC062F0CD0E0001636FCC0E646F3D0E77
:10092E00656F3BEC08F060C086F061C087F062C076
:10093E0088F095C06FF096C070F097C071F086C0C9
:10094E0030F087C031F088C032F059EC0BF030C077
:10095E006CF031C06DF032C06EF0E8EC06F06CC099
:10096E007DF06DC07EF06EC07FF07DC030F07EC039
:10097E0031F07FC032F059EC0BF030C092F031C044
:10098E0093F032C094F0A6C063F0A7C064F0A8C084
:10099E0065F08FC060F090C061F091C062F03BECEA
:1009AE0008F060C06FF061C070F062C071F0A9C055
:1009BE0063F0AAC064F0ABC065F092C060F093C063
:1009CE0061F094C062F03BEC08F060C06CF061C066
:1009DE006DF062C06EF0E8EC06F06CC080F06DC099
:1009EE0081F06EC082F080C06CF081C06DF082C06C
:1009FE006EF089C06FF08AC070F08BC071F0E8ECB9
:100A0E0006F06CC08CF06DC08DF06EC08EF0000ED6
:100A1E00286E480E296E440E2A6E8CC02BF08DC0A7
:100A2E002CF08EC02DF0C7EC09F0D8B007D0000E18
:100A3E0000018C6F480E8D6F440E8E6F00018EAFCD
:100A4E0006D0000E8C6F000E8D6F000E8E6F8CC058
:100A5E0089F08DC08AF08EC08BF092C08FF093C05B
:100A6E0090F094C091F08CC06CF08DC06DF08EC083
:100A7E006EF0BFEC07F06CC0A1F06DC0A2F0A1C08B
:100A8E007BF0A2C07CF000017C357C337B337C355F
:100A9E007C337B337B51BE6EA1C07BF0010E7B1786
:100AAE007B3BBD507B19EF0B7B19BD6EA235A2317E
:100ABE007C6FA1317B6F010E7B177B3B7B47BD505B
:100ACE007B19DF0B7B19BD6E9F05A011D8B49EBF9D
:100ADE00EAD69E5104E1320E9D5DD8A0E4D6000EFA
:100AEE00A06F000E9F6F000E9E6F000E9D6FC45084
:100AFE007C6F7B6BC3507B25306E000E7C21316E7C
:100B0E0023EC0BF030C060F031C061F032C062F007
:100B1E003C0E0001636F700E646F3C0E656F3BEC14
:100B2E0008F060C095F061C096F062C097F095C075
:100B3E006CF096C06DF097C06EF0A3C06FF0A4C0BD
:100B4E0070F0A5C071F0E8EC06F06CC095F06DC0C9
:100B5E0096F06EC097F0000E0001636F200E646F6A
:100B6E00410E656F95C060F096C061F097C062F05F
:100B7E003BEC08F060C06CF061C06DF062C06EF0CE
:100B8E00BFEC07F06CC09BF06DC09CF0800EE7ECE4
:100B9E000AF0090E296E080E2A6E3FEC0BF09BC070
:100BAE0028F09CC029F0000E2B6E640E2A6E0FECFE
:100BBE000AF02850300FC8EC0AF09BC028F09CC0F9
:100BCE0029F0000E2B6E640E2A6E51EC0AF028C02E
:100BDE009BF029C09CF09BC028F09CC029F0000E11
:100BEE002B6E0A0E2A6E0FEC0AF02850300FC8EC4E
:100BFE000AF01A0E296E080E2A6E3FEC0BF09BC0FF
:100C0E0028F09CC029F0000E2B6E0A0E2A6E51ECB5
:100C1E000AF02850300FC8EC0AF0100E296E080E9C
:100C2E002A6E3FEC0BF0000E0001636F200E646F16
:100C3E00410E656F86C060F087C061F088C062F0BB
:100C4E003BEC08F060C06CF061C06DF062C06EF0FD
:100C5E00BFEC07F06CC09BF06DC09CF0C00EE7ECD3
:100C6E000AF0010E296E080E2A6E3FEC0BF09BC0A7
:100C7E0028F09CC029F0000E2B6E640E2A6E0FEC2D
:100C8E000AF02850300FC8EC0AF09BC028F09CC028
:100C9E0029F0000E2B6E640E2A6E51EC0AF028C05D
:100CAE009BF029C09CF09BC028F09CC029F0000E40
:100CBE002B6E0A0E2A6E0FEC0AF02850300FC8EC7D
:100CCE000AF01A0E296E080E2A6E3FEC0BF09BC02E
:100CDE0028F09CC029F0000E2B6E0A0E2A6E51ECE5
:100CEE000AF02850300FC8EC0AF0160E296E080EC6
:100CFE002A6E3FEC0BF0A1C030F0A2C031F023EC15
:100D0E000BF030C060F031C061F032C062F0000E06
:100D1E000001636F000E646F3E0E656F3BEC08F0D2
:100D2E0060C083F061C084F062C085F083C06CF057
:100D3E0084C06DF085C06EF0BFEC07F06CC09BF008
:100D4E006DC09CF09BC028F09CC029F0000E2B6E4D
:100D5E00640E2A6E0FEC0AF02850300FC8EC0AF021
:100D6E009BC028F09CC029F0000E2B6E640E2A6EDC
:100D7E0051EC0AF028C09BF029C09CF09BC028F0D3
:100D8E009CC029F0000E2B6E0A0E2A6E0FEC0AF094
:100D9E002850300FC8EC0AF09BC028F09CC029F0F8
:100DAE00000E2B6E0A0E2A6E51EC0AF02850300FF0
:100DBE00C8EC0AF0180E296E080E2A6E3FEC0BF0E6
:100DCE0072D56EC072F00001736B746B6D35723735
:100DDE0001E373817251776F71C072F0736B746B34
:100DEE007035723701E373817251766F7751D8B4D3
:100DFE000BD07651775DD8B00ED07751000876259E
:100E0E00726F180E726507D06FC06CF070C06DF007
:100E1E0071C06EF012007651D8B40BD07751765D5A
:100E2E00D8B00ED0765100087725726F180E726505
:100E3E0007D06CC06CF06DC06DF06EC06EF012001D
:100E4E00060E756F6EBF758F71BF758D6D8FFF0E30
:100E5E006C17FF0E6D17000E6E17708FFF0E6F174B
:100E6E00FF0E7017000E71177651775DD8B01BD03C
:100E7E00D8906F3770377137760777517619D8B4A7
:100E8E000DD0750775C072F0070E7217D8B406D064
:100E9E00EFD7D8906E336D336C33772B765177193D
:100EAE00D8B41FD0F6D77751765DD8B01AD0D89077
:100EBE006C376D376E37770777517619D8B40DD0FA
:100ECE00750775C072F0070E7217D8B406D0EFD73B
:100EDE00D890713370336F33762B76517719D8A43F
:100EEE00F7D775AF0CD0FF0E6C1BFF0E6D1BFF0EF0
:100EFE006E1B010E6C27000E6D23000E6E2375AD5A
:100F0E000CD0FF0E6F1BFF0E701BFF0E711B010E20
:100F1E006F27000E7023000E7123000E756F6C513B
:100F2E006F276D5170236E51712371AF0ED0FF0E6E
:100F3E006F1BFF0E701BFF0E711B010E6F27000E35
:100F4E007023000E7123010E756F6FC028F070C0F4
:100F5E0029F071C02AF077C02BF075C02CF01CEC74
:100F6E0009F028C06CF029C06DF02AC06EF0120096
:100F7E006EC070F00001716B726B6D35703701E3EE
:100F8E00718170517A6F7A51D8A409D0000E6C6FAE
:100F9E00000E6D6F000E6E6F000E6F6F1200170E4B
:100FAE00706F6CC071F06DC072F06EC073F070290E
:100FBE00746F04D0D890733372337133742FFAD7A1
:100FCE0000017151756F6D8FFF0E6C17FF0E6D174F
:100FDE00000E6E176C51766F6D51776F6E51786F84
:100FEE00796B8E0E7A5F7AAF16D07A51800A8F0F98
:100FFE00D8B009D0000E6C6F000E6D6F000E6E6FC4
:10100E00000E6F6F1200D8907933783377337633C2
:10101E007A3FF9D715D0170E7A650FD0000E6C6F88
:10102E00000E6D6F000E6E6F000E6F6F1200D89077
:10103E0076377737783779377A077A51D8A4F7D752
:10104E007551D8B408D0791F781F771F766D000EB2
:10105E0077237823792376C06CF077C06DF078C053
:10106E006EF079C06FF0120062C034F0356A366AE5
:10107E0000016135343601E335803450666F6651B8
:10108E00D8A407D0000E606F000E616F000E626F65
:10109E00120065C034F0356A366A6435343601E3C1
:1010AE00358034506B6F6B51D8A407D0000E606F33
:1010BE00000E616F000E626F12006B517B0F662780
:1010CE0062C06BF065516B1B800E6B17618F648F66
:1010DE00FF0E6317FF0E6417000E6517000E676F85
:1010EE00000E686F000E696F070E6A6F60A106D062
:1010FE00635167276451682365516923D890623321
:10110E0061336033D8906337643765376A2FEED713
:10111E00090E6A6F60A106D0635167276451682378
:10112E0065516923D890623361336033D890693347
:10113E00683367336A2FEED767C028F068C029F08E
:10114E0069C02AF066C02BF06BC02CF01CEC09F0C5
:10115E0028C060F029C061F02AC062F012000600BB
:10116E00FACF01F0FBCF02F0E9CF03F0EACF04F0A3
:10117E00E1CF05F0E2CF06F0D9CF07F0DACF08F0D5
:10118E00F3CF09F0F4CF0AF0F6CF0BF0F7CF0CF057
:10119E00F8CF0DF0F5CF0EF037C00FF038C010F0CD
:1011AE0039C011F03AC012F0A19200019EBF06D0D4
:1011BE009E5109E1310E9D5DD8B005D0C29AC298FC
:1011CE00C296C29404D0C29AC298C286C284C198F2
:1011DE00F20EB36EFB0EB26EC2829D4B9E2B12C0F0
:1011EE003AF011C039F010C038F00FC037F00EC011
:1011FE00F5FF0DC0F8FF0CC0F7FF0BC0F6FF0AC0DD
:10120E00F4FF09C0F3FF08C0DAFF07C0D9FF06C01C
:10121E00E2FF05C0E1FF04C0EAFF03C0E9FF02C020
:10122E00FBFF01C0FAFF379211002B50D8B405D046
:10123E00285029102A10D8A40CD0000E286E000EAB
:10124E00296E000E2A6E12002B2AD8902A322932CD
:10125E002832000E28142D6E000E29142E6EFE0E4E
:10126E002A142F6E2D502E102F10D8B40CD0ECD770
:10127E002B2A010E2826000E2922000E2A22D89093
:10128E002A3229322832000E28142D6E000E29140F
:10129E002E6EFF0E2A142F6E2D502E102F10D8B436
:1012AE0006D0E6D72B06D890283629362A3629BE00
:1012BE0003D0020E2B60F6D72BA0299ED8902B328E
:1012CE002B502A122C50D8A42A8E28C028F029C0C0
:1012DE0029F02AC02AF01200296E0F0E83160F0E67
:1012EE0095169694969096928D948D908D9274EC10
:1012FE000BF0300EE7EC0AF06BEC0BF06BEC0BF036
:10130E00300EE7EC0AF06BEC0BF06BEC0BF0320EE0
:10131E00E7EC0AF006EC0BF00009D8A4FBD706ECBC
:10132E000BF00009D8A4FBD72950E7EC0AF006EC25
:10133E000BF00009D8A4FBD7080EE7EC0AF006EC78
:10134E000BF00009D8A4FBD70F0EE7EC0AF006EC61
:10135E000BF00009D8A4FBD7010EE7EC0AF006EC5F
:10136E000BF00009D8A4FBD7040EE7EC0AF006EC4C
:10137E000BF00009D8A4FBD7800E89EC0AF01200FE
:10138E002AAE16D028C02EF029C02FF02AC030F079
:10139E002E1E2F1E301E2E2A000E2F223022000E41
:1013AE002E24286E000E2F20296E800E30202A6EDD
:1013BE002DAE16D02BC02EF02CC02FF02DC030F03D
:1013CE002E1E2F1E301E2E2A000E2F223022000E11
:1013DE002E242B6E000E2F202C6E800E30202D6EA4
:1013EE00000E281A000E291A800E2A1A000E2B1A29
:1013FE00000E2C1A800E2D1A2B50285C2C502958BA
:10140E002D502A58D8B002D0D8901200D880120091
:10141E00000E2D6E2BAE06D02A6C2B1ED8B02B2AAA
:10142E00010E2D6E29AE06D0286C291ED8B0292AA1
:10143E00010E2D1A000E2F6E000E2E6E2A502B103E
:10144E00D8B41CD0010E2C6E04D0D8902A362B3670
:10145E002C2A2BAEFAD7D8902E362F362A50285C4F
:10146E002B502958D8A005D02A50285E2B50295A27
:10147E002E80D8902B322A322C2EEDD72D50D8B468
:10148E0004D02E6C2F1ED8B02F2A2EC028F02FC0BD
:10149E0029F01200000E2D6E29AE06D0286C291EE2
:1014AE00D8B0292A010E2D6E2BAE04D02A6C2B1E1D
:1014BE00D8B02B2A2A502B10D8B418D0010E2C6E6F
:1014CE0004D0D8902A362B362C2A2BAEFAD72A5097
:1014DE00285C2B502958D8A004D02A50285E2B50B7
:1014EE00295AD8902B322A322C2EF1D72D50D8B41F
:1014FE0004D0286C291ED8B0292A28C028F029C06B
:10150E0029F01200286E0F0E95160F0E8316285016
:10151E008009F00B83128D948D907CEC0BF08D82F4
:10152E007CEC0BF08D920F0E83162838F00BF00B1F
:10153E0083127CEC0BF08D827CEC0BF08D92F00E16
:10154E0095121200020EF66E170EF76E000EF86E62
:10155E0000EEA3F010EE09F00900F5CFEEFFE55016
:10156E00E150FAE100EE83F0200EEE6AE806FDE1AE
:10157E0037903792000EF86E080EF76E00010FEFDF
:10158E0004F0286E0F0E95160F0E83162850F00BD2
:10159E0083128D808D947CEC0BF08D827CEC0BF0A5
:1015AE008D920F0E83162838F00BF00B83127CEC05
:1015BE000BF08D827CEC0BF08D92F00E95121200DA
:1015CE00286E0F0E95160F0E83162850F00B8312F1
:1015DE008D948D907CEC0BF08D827CEC0BF08D92CB
:1015EE000F0E83162838F00BF00B83127CEC0BF0E9
:1015FE008D827CEC0BF08D92F00E951212008D8484
:10160E008D907CEC0BF08D827CEC0BF083AE0AD0CF
:10161E008D927CEC0BF08D827CEC0BF08D928D9488
:10162E00010E12008D927CEC0BF08D827CEC0BF097
:10163E008D928D94000E1200000E336E31AE06D0D8
:10164E00306C311ED8B0312A010E336E30C028F006
:10165E0031C029F02A6A8E0E2B6E33C02CF01CEC92
:10166E0009F028C030F029C031F02AC032F0120043
:10167E000FD006EC0BF00009D8A4FBD729C0F6FF5B
:10168E002AC0F7FF0800F550C8EC0AF0294A2A2AAA
:10169E0029C0F6FF2AC0F7FF0800F5500009D8B49C
:1016AE001200E7D7305031103210D8B406D0000EE9
:1016BE00301A000E311A800E321A30C030F031C09E
:1016CE0031F032C032F01200210E286E760EE82E66
:1016DE00FED7282EFCD700D01200620E286E660EA2
:1016EE00E82EFED7282EFCD71200210EE82EFED7AC
:0D16FE0000F01200000C42EAFFBF000040A7
:020000040020DA
:08000000FFFFFFFFFFFFFFFF00
:020000040030CA
:0E000000000C1F1EFF8301FF0FC00FE00F401A
:00000001FF
